:020000040800F2
:1000000080040020351400083D1400083F14000847
:1000100000000000000000000000000000000000E0
:100020000000000000000000000000004114000873
:100030000000000000000000431400084514000800
:100040004714000847140008471400084714000824
:100050004714000847140008E30E0008DF0F0008EB
:100060004714000847140008471400084714000804
:1000700047140008471400084714000847140008F4
:100080004714000847140008000000004714000847
:1000900047140008471400084714000847140008D4
:1000A000471400084714000847140008D913000833
:1000B000471400080000000047140008000000007A
:1000C0000348854603F058F800480047ED0500084E
:1000D0008004002070B5054600242021FA4801F074
:1000E000F4FE0446002C01D0012070BD0020FCE786
:1000F00070B50025012420E000BF0520FFF7EAFFCE
:10010000C007C00F0028F8D0E120800000F0E7FB16
:100110000520FFF7DFFFC007C00F002809D0E1204E
:10012000800000F0DCFB80200543082C04DA6D0819
:1001300002E0082C00DA6D08641C082CDCDD28467F
:1001400070BD1FB5002400BF0520FFF7C3FFC00727
:10015000C00F0028F8D00AE0E120800000F0BFFBCB
:10016000042C03DD0020C04304B010BD641C052036
:10017000FFF7B0FFC007C00F0028EDD1FFF7B8FFB1
:100180000090FFF7B5FF0190FFF7B2FF0290FFF775
:10019000AFFF0390002407E0A00069460A582146FB
:1001A000CAA003F01DF8641C042CF5DB0098162887
:1001B00011D1019801280ED1039902980843C00774
:1001C000C00F002802D0C64902980860C4480168E0
:1001D000C4A003F005F80020C6E700B501460020E2
:1001E000C0430B0003F00CF8060E0406080A0C0EC0
:1001F000002008E0012006E0022004E0032002E0E5
:10020000042000E000BF00BF00BD10B50446002C74
:1002100014D0FE223D21982000F03DFCFE223E211C
:10022000982000F038FCFE223D219A2000F033FC9B
:10023000FE223E219A2000F02EFC23E0AD480078FB
:10024000FF21081AC2B23D21982000F024FCA948E1
:100250000078FF21081AC2B23E21982000F01BFC52
:10026000A4480078FF21081AC2B23D219A2000F06C
:1002700012FCA0480078FF21081AC2B23E219A2041
:1002800000F009FC10BD10B50446FF20001BC2B2EF
:100290003D21982000F0FFFBFF20001BC2B23E2151
:1002A000982000F0F8FBFF20001BC2B23D219A20ED
:1002B00000F0F1FBFF20001BC2B23E219A2000F0AB
:1002C000EAFB10BD7FB504468B4B0FCB6D460FC5C7
:1002D00068464470C47000250AE068006B46C01888
:1002E00042786800195C942000F0D5FB681CC5B208
:1002F000072DF2DB102C0AD110220821942000F0E7
:10030000CAFB10220921942000F0C5FB09E000225D
:100310000821942000F0BFFB00220921942000F066
:10032000BAFB7FBD10B5044674480068A04200D1F6
:1003300010BD72480460230002F062FF0504478A82
:10034000E2FEC5000121604801F0D9FD80210920AD
:10035000C00601F0D4FD012109030920C00601F007
:10036000D0FD0121C9020920C00601F0C8FD01210C
:1003700089020920C00601F0C2FD0121C90309203C
:10038000C00601F0BEFD012149020920C00601F0AE
:10039000B6FDFF2101310920C00601F0B0FD40216A
:1003A0000920C00601F0ADFD20210920C00601F0A2
:1003B000A8FD0420FFF786FF7D20C00000F03CFA76
:1003C0000121414801F09DFD0DE101213E4801F070
:1003D00096FD80210920C00601F091FD012109034D
:1003E0000920C00601F08BFD0121C9020920C006C9
:1003F00001F087FD012189020920C00601F07FFD7F
:100400000121C9030920C00601F07BFD0121490239
:100410000920C00601F073FDFF2101310920C0064B
:1004200001F06DFD40210920C00601F06AFD202188
:100430000920C00601F065FD1020FFF743FF7D2075
:10044000C00000F0F9F901211F4801F05AFDCAE08F
:1004500001211D4801F055FD80210920C00601F051
:100460004EFD012109030920C00601F048FD0121CC
:10047000C9020920C00601F042FD012189020920BC
:10048000C00601F03EFD0121C9030920C00601F0AC
:1004900036FD012149020920C00601F030FDFF218F
:1004A00001310920C00601F02AFD40210920C006C3
:1004B00001F027FD20210920C00601F022FD0820BF
:1004C000FFF700FF8FE08DE00004004876616C7557
:1004D00065735B25645D3D307825780D0A0000006A
:1004E00010000020675F69725F6B65792025640DDD
:1004F0000A00000040000020D0BE00080C000020D0
:100500000121B54801F0FBFC80210920C00601F063
:10051000F8FC012109030920C00601F0F0FC0121CB
:10052000C9020920C00601F0EAFC01218902092064
:10053000C00601F0E4FC00E01CE00121C903092031
:10054000C00601F0DEFC012149020920C00601F0CD
:10055000D8FCFF2101310920C00601F0D0FC402168
:100560000920C00601F0CDFC20210920C00601F0C1
:10057000C6FC38E00121984801F0C1FC8021092027
:10058000C00601F0BEFC012109030920C00601F0EC
:10059000B6FC0121C9020920C00601F0B0FC01210E
:1005A00089020920C00601F0AAFC0121C903092023
:1005B000C00601F0A6FC012149020920C00601F095
:1005C0009EFCFF2101310920C00601F09AFC402168
:1005D0000920C00601F093FC20210920C00601F08B
:1005E00090FC00E000BF00BF00BFA1E600BF00BF5D
:1005F0000024302000F03DF900F0AAFE00F0BCFB22
:1006000004210920C00601F07AFC01210920C0065E
:1006100001F077FC08210920C00601F070FC0221DE
:100620000920C00601F06DFCFF2101310920C00640
:1006300001F065FC7D20000100F0FEF80121664814
:1006400001F05FFC00F0ECFB00F05EF900F03EFE14
:1006500000F02EFE002000F043FE00F019FE042002
:10066000FFF730FE5D495E4800F0C4FA5B495D4823
:1006700000F0F0FA00F023FEFF2101310920C0064E
:1006800001F03FFCCF205849086058A002F0A8FDB7
:100690005A4801F02BFBC4B22246214658A002F072
:1006A0009FFD5148046000204F49086030205A499E
:1006B00008605A4908605A4A5178107800F0FAFAEE
:1006C00088E00821444801F000FC002832D11420C1
:1006D00000F0B2F80821404801F0F7FB002829D1CA
:1006E00050A002F07DFD4C480068002804DD4A4817
:1006F0000068401E4849086048480068002804DD3A
:1007000046480068401E4549086037480068002890
:1007100004DD35480068401E33490860324A1268DB
:1007200052003F4BD21851782F4A12685200985C01
:1007300000F0C0FA0121C9030920C00601F0C5FB81
:10074000002834D1142000F077F80121C9030920D2
:10075000C00601F0BAFB002829D132A002F040FD0A
:100760002D480068FF2804DA2B480068401C2A49FD
:1007700008602A480068FF2804DA28480068401CFE
:1007800026490860184800680C2804DA16480068F2
:10079000401C15490860144A12685200204BD218B8
:1007A0005178114A12685200985C00F083FA00BF39
:1007B0000821094801F089FB0028F9D000BF012178
:1007C000C9030920C00601F080FB0028F7D01E20D5
:1007D00000F032F875E7000000040048371100000F
:1007E00086570008F47900084000002068696C62B0
:1007F0006572747A68616E670D0A000004F8FF1F65
:10080000746D70766F6C756D653A202564202030AC
:100810007825780D0A0000004400002048000020E0
:1008200018000020706234206C6F773F3F3F3F3FDD
:100830003F3F0D0A00000000304909884143491E2E
:100840002F4A516101219161114609690122114329
:100850002B4A116100BF2A49096901221204114083
:100860000029F8D02649096949084900244A11613C
:1008700070472349096904229143214A11611146B5
:100880000969022291431E4A1161C217520F1218C0
:100890005205120E1B4B1A70194609787D22D200A0
:1008A0005143164A11807047164909784143491E41
:1008B000134A5161012191611146096901221143D5
:1008C0000F4A116100BF0E4909690122120411404B
:1008D0000029F8D000210A4A116191617047002176
:1008E00006E0042100BF0A464B1E99B2002AFAD145
:1008F0000246401E002AF4D170470000320000205A
:1009000000E000E03400002000B589B00121480576
:1009100002F057F8102001F040FF0121880402F096
:1009200034F801220821FD4801F0F5FA01220921DD
:10093000FA4801F0F0FA032000020790022108A80B
:100940000170012181700021C1700321417007A94C
:10095000F24801F057FA00200390069001900290AF
:1009600004900120C0030590ED4800906946ED48D1
:1009700001F017FB0121EB4801F050FB09B000BD6D
:10098000F8B504460E46154601200004E649086005
:1009900009E0E54801680068401EE34A106000294C
:1009A00001D10020F8BD0121C903DE4801F0F6FCA9
:1009B0000028EED1012040030023012221460090AF
:1009C000D84801F043FC01200004D749086009E041
:1009D000D54801680068401ED34A1060002901D143
:1009E0000020DFE70221CF4801F0D8FC0028EFD03B
:1009F0003146CC4801F0C2FC01200004CA4908601D
:100A000009E0C94801680068401EC74A1060002913
:100A100001D10020C6E74021C24801F0BFFC0028F8
:100A2000EFD00920800201235B06012221460090BD
:100A3000BC4801F00BFC01200004BB49086009E040
:100A4000B94801680068401EB74A1060002901D10A
:100A50000020A7E70421B34801F0A0FC0028EFD054
:100A6000B04801F08DFC287001200004AE490860F8
:100A700009E0AD4801680068401EAB4A10600029DB
:100A800001D100208EE72021A64801F087FC002834
:100A9000EFD0012086E7F8B504460E461546012042
:100AA0000004A14908600CE09F4801680068401EEE
:100AB0009D4A1060002904D19CA002F091FB002007
:100AC000F8BD0121C903974801F068FC0028EBD16B
:100AD00001204003C302012221460090914801F009
:100AE000B5FB01200004904908600CE08E480168C5
:100AF0000068401E8C4A1060002904D18FA002F0CB
:100B00006FFB0020DCE70221864801F047FC00284B
:100B1000ECD03146834801F031FC012000048249C9
:100B200008600CE0804801680068401E7E4A106042
:100B3000002904D185A002F053FB0020C0E78021EA
:100B4000784801F02BFC0028ECD0002001235B0644
:100B5000012221460090734801F078FB0120000437
:100B6000714908600CE0704801680068401E6E4AD8
:100B70001060002904D171A002F032FB00209FE731
:100B80000221684801F00AFC0028ECD0294665489B
:100B900001F0F4FB01200004634908600CE06248A6
:100BA00001680068401E604A1060002904D16BA0F3
:100BB00002F016FB002083E720215A4801F0EEFBEB
:100BC0000028ECD001207BE770B504460D46627822
:100BD000217866480078FFF75EFF012070BD70B590
:100BE00004460D466278217861480078FFF753FF8C
:100BF000012070BD70B505460E46002427E0600058
:100C0000285CFD280AD0FE2802D0FF2817D11CE05E
:100C1000610049194878FFF70FFE16E0620052198B
:100C20005178621C52005019FFF7CEFF610049193C
:100C30004878C10F09184910491C0C1905E06100DA
:100C400048190221FFF7C0FF00BF00BF641CB44277
:100C5000D5DB70BD70B505460E46002427E0600068
:100C6000285CFD280AD0FE2802D0FF2817D11CE0FE
:100C7000610049194878FFF7DFFD16E0620052195C
:100C80005178621C52005019FFF7A9FF6100491901
:100C90004878C10F09184910491C0C1905E061007A
:100CA00048190221FFF79BFF00BF00BF641CB4423C
:100CB000D5DB70BD70B505460C460026F6432346CD
:100CC0002A46FF210A312B4802F08AFA00221146F7
:100CD00026480078FFF7DFFE2A463D2123480078AA
:100CE000FFF7D9FE2A463E2120480078FFF7D3FEC1
:100CF000002211461E480078FFF7CDFE22463D2116
:100D00001B480078FFF7C7FE22463E2118480078AE
:100D1000FFF7C1FE0026304670BD00000004004809
:100D20000903310000540040380000204932435F7D
:100D3000464C41475F425553590A0D004932435FC3
:100D4000464C41475F545849530A0D004932435FAE
:100D5000464C41475F5443520A0D00004932435FFD
:100D6000464C41475F53544F500A0D003C00002051
:100D70003D000020E0BE00081CB50121880501F0FF
:100D800004FE002168460171C17103214171802078
:100D900000906946FE4801F035F80121480401F051
:100DA000F4FD0021684601710121C1714171F948CA
:100DB000009069460920C00601F024F8012148048A
:100DC00001F0E3FD01216846017100218171C171CB
:100DD00001214171F048009069460920C00601F0E8
:100DE00011F80121880401F0D0FD0121684601714C
:100DF000002181710121C1714171E848009069466B
:100E0000E74800F0FFFF0021684601710121C17130
:100E10004171082000906946E14800F0F3FF1CBDD5
:100E200000B585B00121880401F0AFFD012108461D
:100E300001F0B9FD61204001039000216846017472
:100E4000022141740021C17403A9D54800F0DAFFE2
:100E50000A21012001F054FE0B21012001F050FE77
:100E60000521012001F04CFE6120400100F067FCEB
:100E70000120800201900021684601720C2141721C
:100E80000121817201A800F0F1FB0120C002019054
:100E90000021684601720C2141720121817201A872
:100EA00000F0E4FB202001900021684601720C2133
:100EB00041720121817201A800F0D8FB0621684629
:100EC0000170002141700121817001F087FA072132
:100ED0006846017001214170817001F07FFA05B010
:100EE00000BD70B5002400250026AD4800F0F7FFD6
:100EF0000007C40F082000F017FC00286BD0A8489A
:100F000000F0EDFF0007C60FA64264D1A44800F030
:100F1000E6FFC006C50F012C12D1002D10D1A1484B
:100F20000078002857D1A0480078002853D19D4868
:100F300000789C4908709C4800789B4908704AE0FA
:100F4000002C33D1002D31D196480078012842D1B0
:100F50009548007800283ED1924800789149087061
:100F6000914800789049087090480068801C8F492B
:100F7000086008460068FF2801DBFF2008608B49F5
:100F8000087800F0ADF98948008881B2884801F0FE
:100F90005FFF00BF4021864802F06CF80028F9D0BE
:100FA0008248016883A002F01BF914E0002C06D1EE
:100FB000012D04D17B4804707B4805700BE0002CA8
:100FC00009D1012D07D17748007876490870764815
:100FD000007875490870082000F0B1FB70BDF8B5C5
:100FE00000240025002600276D4800F078FF40050A
:100FF000C40F6B4800F073FF0005C50F012080028D
:1010000000F092FB00287ED0654800F068FF4005A4
:10101000C60FA64271D1624800F061FF0005C50FFE
:10102000012C12D1002D10D15E480078002864D127
:101030005D480078002860D15A4800785949087006
:10104000594800785849087057E0002C40D1002DCD
:101050003ED15448007801284FD1534800780028E9
:101060004BD1504800784F4908704F4800784E499E
:1010700008704E480068801C4C49086008460068AB
:10108000FF2801DBFF20086048480068FF21081A9C
:101090004B490860084602783D219820FFF7FBFC89
:1010A000474802783E219820FFF7F5FC4448027833
:1010B0003D219A20FFF7EFFC414802783E219A201B
:1010C000FFF7E9FC394801683AA002F089F814E01A
:1010D000002C06D1012D04D132480470324805702D
:1010E0000BE0002C09D1012D07D12E4800782D49A5
:1010F00008702D4800782C4908700120800200F00B
:101100001EFBADE0FFE70120C00200F00DFB002850
:1011100072D0234800F0E3FE0005C70FAF420CD1A8
:101120001F4800F0DCFE4005C40F002C06D0002D47
:1011300004D11C4804701C4805707FE0002C5CD171
:10114000002D5AD117480078002877D1164800782A
:10115000012873D1134800781249087012480078AA
:101160001149087011480068801E1049086008463F
:101170000068002801DC002008600C480068FF219E
:10118000081A0F490860084602783D21982019E0A6
:101190000014004820800000EF1F000001D0000074
:1011A000000400484C0000204D00002040000020BA
:1011B000004400402B2B2B2B3A25640D0A00000025
:1011C00050000020FFF767FC264802783E21982057
:1011D000FFF761FC234802783D219A20FFF75BFC72
:1011E000204802783E219A20FFF755FC1E480168EE
:1011F0001EA001F0F5FF21E025E0002C12D1012D09
:1012000010D11D480078002818D11C48007800280B
:1012100014D11948007818490870184800781749FF
:1012200008700BE0012C09D1012D07D1124800787C
:101230001149087011480078104908700120C00257
:1012400000F07DFA0CE0202000F06EFA002807D0B4
:10125000FEF777FF0AA001F0C3FF202000F06FFA2D
:10126000F8BD000050000020400000202D2D2D2D45
:101270003A25640D0A0000004C0000204D000020BB
:10128000455854495F4C696E65352032200D0A007F
:1012900010B540210920C00600F031FE10BD10B588
:1012A00040210920C00600F02CFE10BD7047704799
:1012B00010B501210903094800F021FE10BD10B549
:1012C00001210903054800F01CFE10BD10B50121E5
:1012D000C9030920C00600F014FE10BD0004004838
:1012E00070B50446002501218903184800F009FE65
:1012F000FF2101310920C00600F003FE00BF1CE001
:1013000080202040002805D00121C9030F4800F0AB
:10131000F6FD04E00121C9030C4800F0F2FD0121B3
:1013200089030A4800F0EBFD6006040E01218903E1
:10133000064800F0E6FD681CC5B2082DE0DBFF2181
:1013400001310920C00600F0DAFD70BD000400483C
:1013500000B589B01B216846017001214170817080
:1013600001F03CF80121880401F00FFB0121880302
:1013700001F019FB002206212B4800F0CCFD0022D1
:101380000721294800F0C7FDC0200790022108A8C6
:101390000170002181700121C1700321417007A9F2
:1013A000214800F02FFD4B20C00101900020029049
:1013B0000390049006900C20059001A91B4801F0B1
:1013C000F7FB0121194801F08CFC0122184917484C
:1013D00001F01CFE09B000BD10B51549134801F01D
:1013E00055FE00280ED0114801F036FD0446214676
:1013F0000E4801F02DFD00BF80210C4801F03AFE9F
:101400000028F9D010BD70B504460D46E1B207487A
:1014100001F01EFD00BF4021044801F02BFE002812
:10142000F9D0204670BD000000040048003801409B
:10143000050105000448804704480047FEE7FEE731
:10144000FEE7FEE7FEE7FEE731150008C1000008F1
:101450000CB5002001900090774800680121090434
:1014600008437549086000BF7348006801214904BA
:10147000084000900198401C01900098002804D179
:101480000521090301988842EED16B4800680121CB
:1014900049040840002802D00120009001E000200B
:1014A00000900098012842D1644800681021084348
:1014B0006249086008460068012108435F490860E6
:1014C0005D4840685C494860084640684860084696
:1014D00040687F21C90388435749486008464068EF
:1014E0001121090408435449486008460068012155
:1014F000090608435049086000BF4F4800680121B1
:10150000490608400028F8D04B4840688008800011
:1015100049494860084640680221084346494860F6
:1015200000BF454840680C2108400828F9D10CBD8F
:1015300010B541480068012108433F49086008464A
:1015400040683F4908403C494860084600683D49BA
:101550000840394908600846006801218904884329
:1015600035490860084640683F21090488433249EC
:1015700048600846C06A00090001C8620846006B5E
:10158000FF21543188432C4908630846406B4008CA
:101590004000486300208860FFF75AFF10BDF8B58F
:1015A0000025002400260027234840680C2108401D
:1015B0000546002D04D0042D06D0082D2AD107E0C1
:1015C00021482249086029E01F482049086025E099
:1015D000194840680F2189040840044616484068AD
:1015E0000321C90308400646A00C841C002E04D128
:1015F00017486043154908600BE00F48C06A0007B0
:10160000000F471C3946104801F070FD60430F4938
:10161000086003E00C480D49086000BF00BF0648A1
:101620004068F021084000090A490D5C074800683D
:10163000E84006490860F8BD001002400020024062
:101640000CB8FFF8FFFFF6FE00127A0054000020ED
:1016500000093D00580000203A483B49086000203E
:1016600048608860C8603948486170470021364941
:101670008279002A35D00A46126803689A430B46DD
:101680001A600A46526803689A430B465A60027908
:1016900051180A6803681A430A602B4A9268036863
:1016A0009A43294B9A601A46D26803689A43264B9C
:1016B000DA604279102A0CD11A46926803681A43FC
:1016C000214B9A601A46D26803681A431E4BDA60AF
:1016D0000DE01D49427951180A6803681A430A60EF
:1016E00005E0027951180A6803689A430A60704756
:1016F0000021016001710C2141710021817170474D
:10170000114909690143104A1161704701460020DF
:101710000D4A52690A40002A01D0012000E0002051
:10172000704709494861704701460020064A5269DE
:101730000A40002A01D0012000E000207047024941
:10174000486170470000940F00040140FFFF6B00E8
:1017500001460020FE4A10684008400002460A4345
:101760001046FB4A10607047002806D0F849096807
:1017700010221143F64A116005E0F549096810226C
:101780009143F34A116070470020F1490968202213
:101790001140002901D0012000E000207047EC48F2
:1017A000006980210840002804D0EA48E8494860E0
:1017B000E94848607047E648006980210843E449E9
:1017C000086170470420E249C968C907C90F0029A8
:1017D00001D0012010E0DE49C96810221140002923
:1017E00001D0022008E0DA49C9680422114000292A
:1017F00001D0032000E00420704710B50346042404
:10180000FFF7E0FF044603E0FFF7DCFF04465B1E42
:10181000012C01D1002BF7D1002B00D1052420464B
:1018200010BD30B5044604250B200004FFF7E5FF8A
:101830000546042D17D1C648006902210843C44952
:10184000086108464461006940210843C0490861B5
:101850000B200004FFF7D1FF0546BD4800690221B7
:101860008843BB490861284630BD10B504240B20CD
:101870000004FFF7C2FF0446042C16D1B4480069E7
:1018800004210843B2490861084600694021084321
:10189000AF4908610B200004FFF7AFFF0446AC48D6
:1018A000006904218843AA490861204610BD78B523
:1018B00006460C460425002000900B200004FFF78C
:1018C0009CFF0546042D24D1A1480069012108434D
:1018D0009F49086134800B200004FFF78EFF054606
:1018E000042D10D1B01C0090200C009908800B2012
:1018F0000004FFF782FF0546954800694008400054
:101900009349086105E09248006940084000904909
:101910000861284678BD70B504460D4604260B20A4
:101920000004FFF76AFF0646042E11D188480069BB
:10193000012108438649086125800B200004FFF738
:101940005CFF064682480069400840008049086103
:10195000304670BD0146088870477D480069012106
:1019600049020840002804D17A48794988607A48B9
:1019700088607047764800690121490288437449AC
:1019800008617047724800690121490308437049A2
:101990000861704700206E49C9690622114000297C
:1019A00001D0012000E00020704730B5AA250424B2
:1019B000FFF7F0FF002800D000250B200004FFF700
:1019C0001CFF0446042C36D16148006920210843DD
:1019D0005F49086108460069402108435C49086185
:1019E0000B200004FFF709FF0446042C1BD15848C4
:1019F0000069202188435649086108460069102182
:101A0000084353490861554805800B200004FFF73F
:101A1000F4FE0446052C0ED04D4800691021884381
:101A20004B49086107E0052C05D0494800691021A1
:101A3000884347490861204630BDF0B50446484E0A
:101A400037460425E443E6B2FF2000022040070A9F
:101A50000B200004FFF7D1FE0546042D21D13C48A0
:101A60000069102108433A490861FF2E06D03B481F
:101A700006810B200004FFF7C0FE0546042D08D1A7
:101A8000FF2F06D0354847810B200004FFF7B5FE35
:101A90000546052D05D02E480069102188432C49A4
:101AA00008612846F0BD30B5054604240B2000042B
:101AB000FFF7A3FE0446042C36D1254800692021F7
:101AC000084323490861084600694021084320492A
:101AD00008610B200004FFF790FE0446042C1BD184
:101AE0001B4800692021884319490861084600699C
:101AF0001021084316490861184805800B2000048E
:101B0000FFF77BFE0446052C0ED01148006910211A
:101B100088430F49086107E0052C05D00C4800698F
:101B2000202188430A490861204630BDF0B50546AA
:101B30000E46174604240B200004FFF75EFE044601
:101B4000042C24D10248006910210843004909E00F
:101B50000020024023016745AB89EFCD00F8FF1F4D
:101B6000FFFF0000086128463043F821394308434D
:101B7000814948800B200004FFF73FFE0446052CF6
:101B800005D07E480069102188437C4908612046C1
:101B9000F0BD30B5054604240B200004FFF72DFEF0
:101BA0000446042C16D17548006910210843734976
:101BB0000861EF202843704948800B200004FFF79C
:101BC0001CFE0446052C05D06C4800691021884392
:101BD0006A490861204630BD30B5054604240B2013
:101BE0000004FFF70AFE0446042C16D1634800697E
:101BF0001021084361490861DF2028435E4948807D
:101C00000B200004FFF7F9FD0446052C05D05B48C6
:101C100000691021884359490861204630BD30B51C
:101C2000054604240B200004FFF7E7FD0446042CBE
:101C300016D1524800691021084350490861BF205D
:101C400028434D4948800B200004FFF7D6FD044689
:101C5000052C05D04948006910218843474908618F
:101C6000204630BD30B5054604240B200004FFF7A4
:101C7000C4FD0446042C16D14048006910210843D5
:101C80003E490861882028433B4948800B200004D6
:101C9000FFF7B3FD0446052C05D038480069102134
:101CA000884336490861204630BD70B505460E466A
:101CB00004240B200004FFF7A0FD0446042C13D1DC
:101CC0002E480069102108432C4908612E800B2002
:101CD0000004FFF792FD0446052C05D02748006953
:101CE0001021884325490861204670BD70B504461F
:101CF000002604250B200004FFF77FFD0546042D78
:101D000013D11E480069102108431C490861268828
:101D10000B200004FFF771FD0546052D05D017487F
:101D200000691021884315490861304670BD134889
:101D3000C0690004000E70471048006A704700290F
:101D400005D00E4A126902430C4B1A6104E00B4A9B
:101D500012698243094B1A61704701460020074A05
:101D6000D2680A40002A01D0012000E0002070471C
:101D70000249C8607047000000F8FF1F00200240C1
:101D800010B504460920C006844209D10121480447
:101D900000F025FE00210120400400F020FE30E08C
:101DA0006E48844208D10121000200F018FE002193
:101DB000200200F014FE24E06948844208D1012189
:101DC000000200F00CFE0021200200F008FE18E0E6
:101DD0006448844209D10121080500F000FE002179
:101DE0000120000500F0FBFD0BE05F48844208D1B4
:101DF0000121880500F0F3FD00210120800500F09D
:101E0000EEFD10BDF0B50A4600210023002400BFFE
:101E10003DE001258D402B4615681D402C469C4217
:101E200034D11579012D02D01579022D16D185688E
:101E30004F000326BE40B543856055794E00B5403E
:101E4000866835438560858801268E40B543858048
:101E5000858896798E40B6B23543858005684F00F7
:101E60000326BE40B543056015794E00B5400668AF
:101E700035430560C5684F000326BE40B543C560C5
:101E8000D5794E00B540C6683543C560491C102958
:101E9000BFD3F0BD354901600021017102214171BC
:101EA00000218171C171704708B5012212040092AE
:101EB000009A0A430092009AC261C161009AC2610D
:101EC000C2690092C269009208BD02460020138ACE
:101ED0000B40002B01D0012000E00020704701469C
:101EE000088A704702460020938A0B40002B01D0DD
:101EF000012000E0002070470146888A7047816118
:101F0000704701857047002A01D0816100E001859A
:101F1000704781827047F0B5002300244D07EE0E14
:101F20001546B5402B46CD10AE0005462035AD59BF
:101F30004E07F70E0F26BE40B543CE10B60007463B
:101F40002037BD51CD10AE003D46AD591D432C4646
:101F5000CD10AD003E467451F0BD000000040048B5
:101F600000080048000C004800140048FFFF000073
:101F700010B50446FB48844209D10121480500F010
:101F80004AFD00210120400500F045FD08E0012147
:101F9000880500F040FD00210120800500F03BFD98
:101FA00010BD10B50A46002103685B085B000360A2
:101FB0000168ED4B19409468240253682343194388
:101FC00001600F2424061368A343036103680124FE
:101FD0002343036000218160C16014699369234336
:101FE0001946816083680124E40323438360D16838
:101FF00003680B4303604168DC4B19405369194384
:10200000416010BD0021016041608160C1600161DB
:102010000121C9034161002181617047002904D079
:10202000026801231A43026003E00268520852006A
:1020300002607047002905D0026801235B031A4340
:10204000026004E0026801235B039A430260704768
:10205000002A03D003680B43036002E003688B434C
:1020600003607047002905D0026801235B049A438E
:10207000026004E0026801235B041A4302607047B7
:10208000002905D0026801239B041A43026004E082
:10209000026801239B049A4302607047002905D01F
:1020A000C2680123DB031A43C26004E0C268012353
:1020B000DB039A43C260704770B50B460021C168CC
:1020C000AB4C2140FE241C40150207263602354049
:1020D0002C432143C16070BD002905D00268012353
:1020E000DB041A43026004E002680123DB049A4324
:1020F00002607047002905D0026801231B041A43BF
:10210000026004E0026801231B049A4302607047E6
:102110000A4600214168890A890293059B0D1943EB
:1021200041607047002905D042680123DB021A4351
:10213000426004E042680123DB029A434260704738
:10214000002905D0426801235B061A43426004E07F
:10215000426801235B069A4342607047002905D01C
:10216000426801231B061A43426004E042680123CF
:102170001B069A434260704710B50A460021416829
:10218000FF2424040B46A343194613042340194398
:10219000416010BD002905D1426801239B029A438A
:1021A000426004E0426801239B021A434260704788
:1021B000002905D0426801235B031A43426004E012
:1021C000426801235B039A4342607047002905D0AF
:1021D000426801239B031A43426004E042680123E2
:1021E0009B039A4342607047002905D0426801234F
:1021F0001B031A43426004E0426801231B039A4315
:1022000042607047002905D042680123DB039A43EE
:10221000426004E042680123DB031A4342607047D6
:10222000014688697F2252041040000C704710B5A7
:102230000146002200208B690124240423401A4611
:10224000002A00D101E00120800210BDF0B50C464B
:1022500000214168474D2940A505AD0D1604FF2713
:102260003F043E4035431D43059E354329434160AD
:10227000F0BD002905D0026801239B051A430260C6
:1022800004E0026801239B059A430260704700291D
:1022900005D042690123DB031A43426104E042692D
:1022A0000123DB039A4342617047002905D042694C
:1022B0000123DB071A43426103E0426952005208DE
:1022C00042617047002905D0426901231B031A436C
:1022D000426104E0426901231B039A434261704753
:1022E0000A4600214169090B090313051B0D194317
:1022F0004161704710B50A46002141691E4B1940E3
:1023000013041D4CE44323401943416110BD0029CF
:1023100005D002680123DB051A43026004E002686D
:102320000123DB059A4302607047002905D002684B
:1023300001239B061A43026004E0026801239B0606
:102340009A43026070470146086AC0B2704708B5F8
:1023500002460020009000920098401800900098DB
:10236000006808BD00540040FFE0CF00FF7FFF077A
:1023700001F8FFFF009800FCFFFF00F0816270474A
:102380000146486AC0B27047002A03D003680B4375
:10239000036002E003688B430360704710B5024698
:1023A0000023002093691C460C402346002B01D0DB
:1023B000012000E0002010BDC161704710B5024649
:1023C0000023002093691C460C402346002B01D0BB
:1023D000012000E0002010BDC1617047002182781B
:1023E000002A27D0274A03231B02D21803789B1008
:1023F0009B00D15802789207D30EFF229A400B46D9
:102400009343194642789207120E03789B07DB0E1E
:102410009A4011431B4A03231B02D21803789B10D6
:102420009B00D1500278D306DB0E01229A40154B57
:102430001A6007E00278D306DB0E01229A40114BA6
:1024400080331A607047002905D00F4A1269024391
:102450000D4B1A6104E00C4A126982430A4B1A615F
:102460007047042806D10949096904221143074A23
:10247000116105E00549096904229143034A11618C
:102480007047000000E100E000ED00E000E000E047
:10249000FD48006801210843FB4908600846406880
:1024A000FA490840F849486008460068F849084079
:1024B000F549086008460068012189048843F2490B
:1024C0000860084640683F2109048843EE49486097
:1024D0000846C06A00090001C8620846006BFF2177
:1024E00054318843E84908630846406B400840007F
:1024F00048630020886070470021E34A91701146CC
:102500008870704710B50246002100230020511149
:10251000002902D1DC4C23680BE0012902D1DA4CFE
:10252000236A06E0022902D1D74C636A01E0D64C47
:10253000636BD106C90E01248C401C40002C01D0D5
:10254000012000E0002010BD38B5002000900024DC
:10255000002500BF1120FFF7D5FF05460098401C5D
:102560000090052109030098884201D0002DF1D088
:102570001120FFF7C7FF002801D0012400E000244C
:10258000204638BD01460020BF4A1068F8230246A5
:102590009A431046CA001043BB4A10607047002897
:1025A00006D0B949096801221143B74A116005E014
:1025B000B549096849084900B34A116070470146A6
:1025C0000020B14A506BF82302469A431046CA00D5
:1025D0001043AD4A50637047002806D0AA49496BA2
:1025E00001221143A84A516305E0A749496B4908F4
:1025F0004900A54A51637047002806D0A249496B9B
:1026000004229143A04A516305E09F49496B04228B
:1026100011439D4A516370479B49096A4908490023
:10262000994A11621146096A04229143964A11623D
:102630001146096A0143116270479349096A1822D9
:102640009143914A11621146096A01431162704730
:10265000002806D08C49496A012211438A4A5162F6
:1026600005E08949496A49084900874A516270472B
:10267000854A52687B23DB039A43834B5A601A4690
:10268000526803460B431A437F4B5A607047002839
:1026900007D07D4909680122120611437A4A116068
:1026A00006E079490968012212069143764A1160D1
:1026B000704701460020744AD06A000900010246B2
:1026C0000A431046704AD0627047002807D06E490E
:1026D00009680122D20411436B4A116006E06A497D
:1026E00009680122D2049143674A11607047664924
:1026F000C871704701460020634A50688008800016
:1027000002460A431046604A506070475E4840687F
:102710000C2108407047014600205B4A5068F023B6
:1027200002469A43104602460A431046564A5060F3
:10273000704701460020544A506807231B02024696
:102740009A43104602460A4310464F4A506070476B
:102750004D4949680122920391434B4A5160114609
:10276000496882B21143484A51601146096B92157B
:102770009143454A11631146096B020C1143424AC9
:10278000116370474049096B402291433E4A1163EF
:102790001146096B0143116370473B49096B1022D5
:1027A0009143394A11631146096B01431163704724
:1027B0003549096B89088900334A11631146096B51
:1027C000014311637047FEB5044600250026002032
:1027D0000190009000272C4840680C2108400546D5
:1027E000002D04D0042D05D0082D28D105E029485E
:1027F000206027E02748206024E0234840680F211C
:10280000890408400646204840680321C90308405F
:102810000190B00C861C0198002803D11E4870431B
:1028200020600BE01848C06A0007000F401C0090B1
:102830001848009900F05AFC7043206002E01548E7
:10284000206000BF00BF10484068F02108400546E6
:102850002D091248475D2068F84060600A484068CA
:1028600007210902084005462D0A0C48475D6068AB
:10287000F840A0600448006BFF2101310840884205
:1028800010D00748E0601BE0001002400CB8FFF8D1
:10289000FFFFF6FE00127A0000093D0068000020EC
:1028A000809FD5007548406801218903084088420F
:1028B00003D0A0684008E06002E0A0688008E06003
:1028C0006E48006B40210840402802D06C482061CF
:1028D00002E00120C00320616848006B102108401D
:1028E000102802D06748606101E020686061634899
:1028F000006B8007800F002802D1A068A06119E05A
:102900005E48006B8007800F012802D12068A0611B
:1029100010E05A48006B8007800F022802D1800324
:10292000A06107E05548006B8007800F032801D1A4
:102930005448A061FEBD5149096A01434F4A1162E2
:102940007047002807D04D49096A0122D20311437C
:102950004A4A116206E04949096A0122D2039143B9
:10296000464A11627047002807D04449096A01228B
:1029700012041143414A116206E04049096A0122EA
:10298000120491433D4A11627047002905D03B4A29
:1029900052690243394B5A6104E0384A5269824312
:1029A000364B5A617047002905D0344A9269024378
:1029B000324B9A6104E0314A926982432F4B9A610B
:1029C0007047002905D02D4AD26902432B4BDA61AA
:1029D00004E02A4AD2698243284BDA617047002911
:1029E00005D0264A926A0243244B9A6204E0234AA5
:1029F000926A8243214B9A627047002905D01F4A90
:102A0000D26802431D4BDA6004E01C4AD26882435C
:102A10001A4BDA607047002905D0184A1269024340
:102A2000164B1A6104E0154A12698243134B1A616E
:102A30007047002905D0114A527A02430F4B5A724F
:102A400004E00E4A527A82430C4B5A7270470B488C
:102A5000406A012109060843084948627047014657
:102A60000020064A92680A40002A01D0012000E0B6
:102A70000020704701498872704700000010024032
:102A80001280000000127A003A4800688007800F28
:102A9000384908600020886000213648C160016123
:102AA00041618069FF2101310843324988617047E3
:102AB000014600202F4A10688008800002460A4321
:102AC00010462C4A10607047002905D0294A126828
:102AD0000243284B1A6004E0264A12688243254BC1
:102AE0001A607047002905D0224A12680243214B20
:102AF0001A6004E01F4A126882431E4B1A60704736
:102B000030B500228B071C0F0F23A3401A46194B28
:102B100008338C10A4001B599343164C08348D10B5
:102B2000AD00635123468C10A4001B598C07250F60
:102B30000446AC4023430F4C08348D10AD00635164
:102B400030BD0C49896901430A4A916170470146C9
:102B50000020084A9269FF2301331A40002A01D05D
:102B6000012000E000207047024989690143014AC1
:102B7000916170470000014010B50446F748844257
:102B800009D101218803FFF738FF002101208003CC
:102B9000FFF733FF0BE0F248844208D101214804DB
:102BA000FFF739FF002101204004FFF734FF10BD7B
:102BB000F0B589B005460E4600240020089000BFFD
:102BC00000BF28684008400028606C6803210903A2
:102BD000204688430446B06804436C602C68E14892
:102BE0000440F168706808433169084304432C606D
:102BF000AC680321090220468843044670690443F7
:102C0000AC606846FFF7DFFDD448854202D10698E4
:102C1000089001E00298089028680121C903084043
:102C2000002809D0326851001923089A5A431046E7
:102C300000F05CFA074608E0326891001923089A10
:102C40005A43104600F052FA07466421384600F015
:102C50004DFA0401200964214843381A0790286876
:102C60000121C903084000280AD00799C900084675
:102C70003230642100F03AFA4007400F044309E083
:102C80000799090108463230642100F02FFA000745
:102C9000000F0443AC8109B0F0BD4B21C9010160B4
:102CA000002141608160C1600C210161002141610E
:102CB000704710B5002242680F2424021346A34334
:102CC0001A464C680B6823438C682343CC68234323
:102CD0001A43426010BD0021016041608160C16003
:102CE0007047002904D0026801231A43026003E000
:102CF00002685208520002607047002A03D003683D
:102D00000B43036002E003688B43036070470029B4
:102D100005D002680123DB031A43026004E0026865
:102D20000123DB039A4302607047002905D08268C3
:102D30000123DB021A43826004E082680123DB0284
:102D40009A4382607047002905D042680123DB0462
:102D50001A43426004E042680123DB049A43426064
:102D60007047002905D0426801239B041A43426042
:102D700004E0426801239B049A4342607047002AA2
:102D800003D043680B43436002E043688B434360D6
:102D90007047002905D042680123DB031A434260D3
:102DA00004E042680123DB039A4342607047002934
:102DB00005D042680123DB051A43426004E0426803
:102DC0000123DB059A43426070474269120E1206E6
:102DD000426142690A4342617047028AFF231B0233
:102DE0001A400282028A0A4302827047002904D0F4
:102DF000026802231A43026003E0026802239A4336
:102E000002607047826803231B059A4382608268D0
:102E10000A4382607047002905D0426801231B05E0
:102E20001A43426004E0426801231B059A43426052
:102E30007047426803235B059A43426042680A4335
:102E400042607047C1690122D2039143C16170475A
:102E5000CA05D20D028570470146888CC005C00D99
:102E6000704742681202120A426042680B061A4317
:102E700042607047002905D0026801235B031A43B2
:102E8000026004E0026801235B039A43026070471A
:102E900002680123DB029A43026002680A4302606F
:102EA0007047426810239A43426042680A43426076
:102EB0007047426820239A43426042680A43426056
:102EC0007047002905D0426801239B031A434260E2
:102ED00004E0426801239B039A4342607047002943
:102EE00004D0826808231A43826003E082680823C2
:102EF0009A4382607047028AD2B20282028A0B022F
:102F00001A4302827047002904D0826820231A43A2
:102F1000826003E0826820239A4382607047002920
:102F200004D0826810231A43826003E08268102371
:102F30009A4382607047826807235B049A438260E9
:102F400082684B041A438260704742691202120A77
:102F5000426142690B061A434261704700380140E2
:102F600000440040F3E9FFFF826804239A43826033
:102F700082680A4382607047002904D08268022375
:102F80001A43826003E0826802239A43826070479A
:102F9000002905D0826801239B031A43826004E064
:102FA000826801239B039A438260704782680123F1
:102FB000DB039A43826082680A438260704702683A
:102FC0001F235B059A43026002684B051A430260A7
:102FD000704702681F231B049A43026002680B04B7
:102FE0001A4302607047002A03D083680B43836052
:102FF00002E083688B4383607047826801235B0330
:103000009A43826082680A4382607047F8B503463B
:103010000024002600960025002018460E04340ED9
:10302000CEB200960127009EB7403D46022C01D14A
:10303000001D02E0032C00D10830002A03D00668EE
:103040002E43066002E00668AE430660F8BD002A23
:1030500003D0038B0B43038302E0038B8B43038377
:103060007047826801231B039A43826082680A4387
:103070008260704702460020D3690B40002B01D0CC
:10308000012000E0002070470162704770B50246E1
:103090000B4600240021002500201E04350ED9B265
:1030A00001268E403146012D02D11668314006E0DE
:1030B000022D02D15668314001E0966831401C0C67
:1030C0000126A6403446D6693440002903D0002C9E
:1030D00001D0012000E0002070BD10B500230022C7
:1030E0000B0C01249C402246026210BD30B50B46F9
:1030F000014600202022012409E00D46D5409D42D2
:1031000005D31D469540491B254695404019154657
:10311000521E002DF1DC30BDF0B51FB40646002074
:1031200082B005464024019100901BE0019922469F
:103130000F46304600F042F8049A059B801A9941E8
:1031400010D310461946224600F028F8361A8F414F
:103150000197224601200021009F00F01FF8381837
:103160004D4100902046641E0028DFDC019B009842
:103170002946324607B0F0BD064C0125064E05E053
:10318000E36807CC2B430C3C98471034B442F7D388
:10319000FCF79AFF24BF000844BF000810B5202A9E
:1031A00004DB0146203A9140002010BD91402023CD
:1031B0009C1A0346E3401943904010BD10B5202AE5
:1031C00004DB0846203AD040002110BD0B46D34016
:1031D000D0402024A21A91400843194610BD000097
:1031E0000FB410B503A9044B044A029800F026F866
:1031F00010BC08BC04B01847071400087800002071
:1032000030B47446641E2578641CAB4204D3635DFD
:103210005B00E31830BC18471D46F8E702E008C819
:10322000121F08C1002AFAD170477047002001E040
:1032300001C1121F002AFBD170470000FFB58FB0FB
:103240000F460446002606E025280AD0129A119956
:103250009047641C761C20780028F5D1304613B0C6
:10326000F0BD00250121A14A009500E00543641C42
:1032700023780846203B98401042F7D120782E282A
:1032800015D1042005436078641C2A280AD101CF97
:10329000641C00900BE000990A2251433039401819
:1032A000641C00902078014630390929F3D9207830
:1032B0006C280ED004DC4C2813D06A2812D104E00C
:1032C00074280ED07A280DD10BE00120400505436B
:1032D00007E00121090562780D43824201D16D1892
:1032E000641C641C2078864669284AD008DC0028C3
:1032F000B4D058286DD0632810D0642808D140E09D
:1033000070286BD0732812D0752860D0782860D0D0
:10331000129A704611999047761CE5E03878694614
:1033200008720020487202A80190012003E038686A
:1033300001900020C0433F1D69070CD5002500E027
:103340006D1C00998D420FDA8542F9DB0199495DC8
:103350000029F5D108E0002500E06D1C8542FCDB6A
:103360000199495D0029F8D1761907E00198019982
:103370000078491C0191129A119990476D1EF5D25F
:10338000B2E00A20029000216802400F0391022857
:103390000CD001CFC117844600290DDA62460846D9
:1033A00052420021814194462D2008E0FF1DFF0874
:1033B000FF0003CF8446EFE7280504D52B206A469B
:1033C000107401203CE0E8073AD02020F7E70A20FB
:1033D00000E0102000210391029007E010200290ED
:1033E0000021042005430820039100906802400F4B
:1033F000022810D001CF0021844600200D9028071C
:103400001FD5704670280CD0029A1020039B4240B2
:103410001A430CD015E0FF1DFF08FF0003CF8446C0
:10342000EBE740206A46107401200D900CE06046E6
:10343000084306D030206A4610747046507402204B
:103440000D907046582804D029A001900DA80E9028
:103450000DE02CA0F9E76046039B029AFFF75CFEA3
:10346000019B84469B5C0E9A521E0E92137060461E
:103470000843F0D10E9805A9081A2030019068077A
:1034800001D5009801E0012000900199884203DDF8
:1034900001460198081A00E000200025009006E08F
:1034A00004A8129A405D119990476D1C761C0D98E6
:1034B0008542F5DB04E0129A302011999047761C82
:1034C0000099481E00900029F5DC08E00E980E993E
:1034D0000078491C0E91129A11999047761C019917
:1034E000481E01900029F1DC641CB4E609280100A3
:1034F000303132333435363738396162636465666A
:10350000000000003031323334353637383941422B
:10351000434445460000000000000210000103047F
:1035200000000311002C087F09FF0AFF0B000C802C
:103530000D000E010F00107F11FF12FF130014FF8A
:1035400015FF16FF1700188019001A001B001C0534
:103550001D391E481F00207A21C622B823002407E7
:1035600025C1265027002878293E2AB02B002C00A0
:103570002D662E3D2F00307F319932C33300340148
:10358000355336903700387E39AC3A703B003C07F3
:103590003DC13E503F004078413E42B043004400B0
:1035A000454446324700487F49BB4ACE4B004C0158
:1035B0004D534E904F00507E51AC52705300540703
:1035C00055C1565057005878593E5AB05B005C01BF
:1035D0005D0F5EEF5F00607E61F06211630064006A
:1035E00065006600670068E269006A006B006CE0D5
:1035F0006D516EEC6F0070107100720073007400FA
:10360000750076007700780079007A007B007CF105
:103610007D007E007F00002D08C009000A000B001D
:103620000C800D000E000F0010401100120013005E
:10363000140015001600170018DE19001A001B00F0
:103640001CD71D411EA01F0020FF21F022002300D7
:103650002488250026002700281829002A002B008E
:103660002C002D002E002F003000310032003300DE
:103670003400350036003700383039003A003B005E
:103680003CD03D003E003F004000410342844300E7
:10369000440045B246554700480E495B4ADE4B00A0
:1036A0004C7F4DFF4EFF4F00500051005200530021
:1036B0005402550056005700582059005A005B002C
:1036C0005C005D515E265F00604061006200630047
:1036D0006400650C66DC6700680269006A006B00C4
:1036E0006C026D006E006F0070007100720073005C
:1036F00074007516765A7700780079377A567B0011
:103700007C107DA97EBF7F00002E087F09FF0AFF85
:103710000B000C000D000E000F0010021100120033
:10372000130014E0150016001700180C199E1A80DB
:103730001B001CC01D001E001F00204F219F2216D1
:1037400023002402250026002700280029002A0043
:103750002B002C002D002E002F00302031003200D5
:103760003300344035003600370038E039003A0085
:103770003B003CC03D003E003F004000417942F428
:1037800043004400457F46FF4700480049804A0007
:103790004B004C804D004E004F00507F51FF52FFB8
:1037A00053005400558056005700580059805A0065
:1037B0005B005C005D805E005F0060C061006200D5
:1037C0006300647F65FF66FF6700680069006A0048
:1037D0006B006C006D006E006F0070007100720075
:1037E00073007400750076007700787F79FF7AFFA8
:1037F0007B007C817D167E4B7F00002F087D09D6E3
:103800000A8D0B000C7F0D8F0EB20F00108011DDA2
:1038100012761300147D154516C51700188A19CCA9
:103820001ABD1B001C701D0C1EBD1F00207521330E
:1038300022432300249225AD267D2700287E29EAF5
:103840002AF52B002C812D152E0B2F00307E31EA0E
:1038500032F53300347E35EA365F37003882392856
:103860003AE83B003C7F3D943E863F004080416B00
:10387000427A4300447F459446864700487F4993F7
:103880004AEF4B004C804DD54EC54F00507F51FF45
:1038900052FF53005482552056D85700587B59E0A8
:1038A0005AD65B005C7D5DDF5E285F006084611F2F
:1038B000622A6300647F65FF66FF6700688469525F
:1038C0006AA66B006C776DE26E946F00707B71ADD1
:1038D000725A73007488751D766C7700787F79FF53
:1038E0007AFF7B007C887DE67EB67F000030087022
:1038F00009400AC30B000C770D190E4A0F00108FF8
:1039000011BF123D1300147C152416A41700188D46
:1039100019B01A051B001C691D711EE31F002072DF
:10392000214F22FB2300249A256926782700287F2F
:1039300029FF2AFF2B002C002D002E002F00300025
:1039400031003200330034003500360037003800D3
:1039500039003A003B003C7F3DFF3EFF3F00400006
:103960004100420043004400450046004700480033
:1039700049004A004B004C004D004E004F00507F64
:1039800051FF52FF5300548055D0566F5700587E58
:1039900059615ADF5B005C7F5DAB5EE05F00608079
:1039A00061A56280630064FF655B66C567006806A9
:1039B00069636AED6B006C006D0D6EA76F0070009F
:1039C00071BF72E47300740075007600770078FFB1
:1039D00079407A1C7B007C7F7D3E7EA77F00003192
:1039E0000881097F0AC90B000C000D000E000F00B2
:1039F000107F117C12C313001481150516C6170021
:103A0000183F19BE1A781B001CC01D411E881F00DC
:103A1000203F21BE22782300247F25752618270009
:103A2000288129152A2E2B002C3F2DBA2EA02F00DD
:103A300030C0317832723300343F3554367C370031
:103A4000387E39B83A723B003C823D883EA03F0048
:103A50004000410042CF43004400450046CF4700AC
:103A6000480049004ACF4B004C7E4D2A4E5B4F0028
:103A7000508351915275530054005503563B5700E3
:103A8000580059035A3B5B005C005D035E3B5F00DE
:103A9000603E6137622E6300640065006600670067
:103AA000680069E46A696B006C006D726E346F00C7
:103AB0007000710072007300747F75FF76FF7700ED
:103AC000780079007A007B007C007D007E007F001A
:103AD0000032080009000A000B000C000D000E0067
:103AE0000F00107F11FF12FF1300140015001600C5
:103AF0001700180019001A001B001C001D001E00F2
:103B00001F00200021002200230024402500260061
:103B10002700287F29FF2AFF2B002C002D202EEDC7
:103B20002F003000312032ED33003400352036EDE7
:103B30003700387739E23A943B003C8F3DB73E235B
:103B40003F004059410C42DC430044A645F3462463
:103B500047004859490C4ADC4B004C554D864EE015
:103B60004F0050C651DA525053005403558556FC4D
:103B70005700580359855AFC5B005C035D855EFC69
:103B80005F006055618662E0630064C665DA665076
:103B90006700687869036A816B006C876DFC6E7FD3
:103BA0006F007078710372817300747775E2769498
:103BB0007700788F79B77A237B007C007D007E00C8
:103BC0007F000033087F09FF0AFF0B000C000D0087
:103BD0000E000F001000118012001300141415C005
:103BE00016001700180919001A001B001C201D00E0
:103BF0001E001F002080210022012300247F25FFBA
:103C000026FE2700287F29FF2AFD2B002C002D47A8
:103C10002E5D2F003000318132BA33003400350080
:103C200036003700380039003A003B003C3F3DAEDB
:103C30003E143F0040C041004200430044C04500E4
:103C400046004700480549A14AEA4B004C3A4D005E
:103C50004E004F00500151405200530054465580D1
:103C600056005700585959805A005B005C005D00AF
:103C70005E005F0060006100620063006400650038
:103C800066006700680069006A006B006C006D00E8
:103C90006E006F0070007100720073007400750098
:103CA00076007700780079007A007B007C007D0048
:103CB0007E007F000034080009000A000B000C00A1
:103CC0000D000E000F001000110012001300140070
:103CD000150016001700180019001A001B001C0020
:103CE0001D001E001F0020002100220023002400D0
:103CF000250026002700280029002A002B002C0080
:103D00002D002E002F0030003100320033003440EF
:103D1000350036003700380039043A003B003C00DB
:103D20003D003E003F00400041004200430044404F
:103D3000450046004700003E087F09FF0AFF0B00D0
:103D40000C800D000E010F00107F11FF12FF1300F9
:103D500014FF15FF16FF1700188019001A001B002A
:103D60001C051D391E481F00207A21C622B82300D9
:103D7000240725C1265027002878293E2AB02B0089
:103D80002C002D662E3D2F00307F319932C3330039
:103D90003401355336903700387E39AC3A703B00E9
:103DA0003C073DC13E503F004078413E42B0430099
:103DB0004400454446324700487F49BB4ACE4B0049
:103DC0004C014D534E904F00507E51AC52705300F9
:103DD000540755C1565057005878593E5AB05B00A9
:103DE0005C015D0F5EEF5F00607E61F06211630059
:103DF000640065006600670068E269006A006B00A5
:103E00006CE06D516EEC6F00701071007200730009
:103E10007400750076007700780079007A007B00E6
:103E20007CF17D007E007F00003F08C009000A0091
:103E30000B000C800D000E000F001040110012004E
:103E400013001400150016001700188419001A003A
:103E50001B001CD71D411EA01F0020FF21F02200C7
:103E600023002488250026002700281829002A007E
:103E70002B002C002D002E002F00300031003200CE
:103E800033003400350036003700383039003A004E
:103E90003B003CD03D003E003F00400041034284D7
:103EA0004300440045B246554700480E495B4ADE90
:103EB0004B004C7F4DFF4EFF4F0050005100520011
:103EC00053005402550056005700582059005A001C
:103ED0005B005C005D515E265F0060406100620037
:103EE00063006400650C66DC6700680269006A00B4
:103EF0006B006C026D006E006F007000710072004C
:103F0000730074007516765A7700780079377A5600
:103F10007B007C107DA97EBF7F000040087F09FFE9
:103F20000AFF0B000C000D000E000F001002110024
:103F30001200130014E0150016001700180C199E4B
:103F40001A801B001CC01D001E001F00204F219F57
:103F5000221623002402250026002700280029001D
:103F60002A002B002C002D002E002F0030203100C5
:103F700032003300344035003600370038E0390075
:103F80003A003B003CC03D003E003F004000417F06
:103F900042FF43004400457F46FF470048004980F8
:103FA0004A004B004C804D004E004F00507F51FFA7
:103FB00052FF530054005580560057005800598056
:103FC0005A005B005C005D805E005F0060C06100C5
:103FD00062006300647F65FF66FF67006800690038
:103FE0006A006B006C006D006E006F007000710065
:103FF000720073007400750076007700787F79FF97
:104000007AFF7B007C817D167E4B7F000041087D1E
:1040100009D60A8D0B000C7F0D8F0EB20F00108099
:1040200011DD12761300147D154516C51700188A88
:1040300019CC1ABD1B001C701D0C1EBD1F00207565
:10404000213322432300249225AD267D2700287E9C
:1040500029EA2AF52B002C812D152E0B2F00307EFE
:1040600031EA32F53300347E35EA365F3700388284
:1040700039283AE83B003C7F3D943E863F00408033
:10408000416B427A4300447F459446864700487F0F
:1040900049934AEF4B004C804DD54EC54F00507FA1
:1040A00051FF52FF53005482552056D85700587B79
:1040B00059E05AD65B005C7D5DDF5E285F0060845E
:1040C000611F622A6300647F65FF66FF6700688482
:1040D00069526AA66B006C776DE26E946F00707B1C
:1040E00071AD725A73007488751D766C7700787F95
:1040F00079FF7AFF7B007C887DE67EB67F000042F8
:10410000087009400AC30B000C770D190E4A0F0006
:10411000108F11BF123D1300147C152416A4170034
:10412000188D19B01A051B001C691D711EE31F00B4
:104130002072214F22FB2300249A2569267827002C
:10414000287F29FF2AFF2B002C002D002E002F0096
:1041500030003100320033003400350036003700C3
:10416000380039003A003B003C7F3DFF3EFF3F00F6
:104170004000410042004300440045004600470023
:10418000480049004A004B004C004D004E004F00D3
:10419000507F51FF52FF5300548055D0566F570047
:1041A000587E59615ADF5B005C7F5DAB5EE05F006B
:1041B000608061A56280630064FF655B66C567001F
:1041C000680669636AED6B006C006D0D6EA76F0089
:1041D000700071BF72E473007400750076007700A0
:1041E00078FF79407A1C7B007C7F7D3E7EA77F0034
:1041F00000430881097F0AC90B000C000D000E0066
:104200000F00107F117C12C313001481150516C610
:104210001700183F19BE1A781B001CC01D411E88CC
:104220001F00203F21BE22782300247F25752618F9
:104230002700288129152A2E2B002C3F2DBA2EA0CD
:104240002F0030C0317832723300343F3554367C21
:104250003700387E39B83A723B003C823D883EA038
:104260003F004000410042CF43004400450046CF9C
:104270004700480049004ACF4B004C7E4D2A4E5B18
:104280004F00508351915275530054005503563BD3
:104290005700580059035A3B5B005C005D035E3BCE
:1042A0005F00603E6137622E630064006500660057
:1042B0006700680069E46A696B006C006D726E34B7
:1042C0006F007000710072007300747F75FF76FFDD
:1042D0007700780079007A007B007C007D007E000A
:1042E0007F000044080009000A000B000C000D00CC
:1042F0000E000F00107F11FF12FF130014001500B5
:1043000016001700180019001A001B001C001D00E1
:104310001E001F0020002100220023002440250051
:1043200026002700287F29FF2AFF2B002C002D20A4
:104330002EED2F003000312032ED330034003520D7
:1043400036ED3700387739E23A943B003C8F3DB781
:104350003E233F004059410C42DC430044A645F354
:10436000462447004859490C4ADC4B004C554D86C1
:104370004EE04F0050C651DA525053005403558559
:1043800056FC5700580359855AFC5B005C035D8559
:104390005EFC5F006055618662E0630064C665DABA
:1043A00066506700687869036A816B006C876DFCF2
:1043B0006E7F6F007078710372817300747775E29D
:1043C00076947700788F79B77A237B007C007D0024
:1043D0007E007F000045087F09FF0AFF0B000C00EC
:1043E0000D000E000F0010001180120013001414B5
:1043F00015C016001700180919001A001B001C2010
:104400001D001E001F002080210022012300247FA8
:1044100025FF26FE2700287F29FF2AFD2B002C00E0
:104420002D012E8B2F003000310032573300340025
:10443000350036003700380039003A003B003C3F79
:104440003DAE3E143F0040C041004200430044C026
:10445000450046004700480049004A004B004C3ADE
:104460004D004E004F005001514052005300544641
:10447000558056005700585959805A005B005C001F
:104480005D005E005F006000610062006300640028
:10449000650066006700680069006A006B006C00D8
:1044A0006D006E006F007000710072007300740088
:1044B000750076007700780079007A007B007C0038
:1044C0007D007E007F000046080009000A000B0006
:1044D0000C000D000E000F00100011001200130060
:1044E0001400150016001700180019001A001B0010
:1044F0001C001D001E001F002000210022002300C0
:104500002400250026002700280029002A002B006F
:104510002C002D002E002F0030003100320033001F
:104520003440350036003700380039043A003B008B
:104530003C003D003E003F0040004100420043007F
:1045400044404500460047000098080009100A0052
:104550000B000C000D100E040F011000112112F0C1
:1045600013D41400152116EC17D5180019621AEC93
:104570001B001C011D201E781F0020012120227C11
:10458000230024012514268227BE280029212AF091
:104590002BD62C002D622EEC2F01300131203278E9
:1045A000330034013520367C3700380139143A8223
:1045B0003BBE3C003D623EF03F2140004162425024
:1045C0004348440145B2464C4747480149324A48AE
:1045D0004B464C014DB24E544F4A50005172525806
:1045E000534B5400556256F05743580059625A5085
:1045F0005B4E5C005D405E005F4960016132624875
:10460000634C640165B2664C674D680169B26A54D7
:104610006B506C006D726E586F51700071007200BB
:1046200073007400750076007700780079407A0096
:104630007B4F7C007D627EEC7F210099080009623F
:104640000A1C0B540C010DB20E180F531000114030
:10465000120413521400157216141752180119B2CD
:104660001A201B561C001D721E241F572000216299
:1046700022302357240125B2262C2756280129321F
:104680002A282B552C012DB22E342F59300031728F
:104690003238335A340035003600370038003900DC
:1046A0003A003B003C003D403E003F584000416224
:1046B00042F043214400456246F047434800490028
:1046C0004A004B004C004D404E004F5F500051409F
:1046D00052005365540055625668575F580159B2ED
:1046E0005A6C5B605C005D725E705F61600161B21C
:1046F000626063636400657266646764680069622F
:104700006A686B656C016DB26E6C6F6670007140AB
:10471000720073627400757276707767780179B28F
:104720007A607B697C007D727E647F6A009A0800F3
:1047300009720AF00B620C000D000E000F00100051
:104740001140120013681400154016001777180066
:1047500019621A901B771C011DB21E941F7820004D
:10476000217222982379240125B22688277B2800EC
:1047700029722A8C2B7C2C002D002E002F0030005B
:10478000310032003300340035403600377A3800CB
:1047900039C23AF03B7A3C003D623EF03F7A40003D
:1047A000410042004300440045404600478A48011A
:1047B00049104A184B034C004D624EF34FFB50001A
:1047C0005100520053005401551056005703580031
:1047D00059635A635BFB5C005D005E005F00600034
:1047E000610062006300640065406600677D6800E8
:1047F00069626AF06B7D6C006D636E646F7D700042
:10480000710072007300740075837664770278001B
:1048100079837A687B027C007D007E007F00009BAC
:10482000080109100A140B060C000D630E6F0FFB34
:1048300010001163124F13FB14001500160017002F
:10484000180019831A701B021C001D831E6C1F02A6
:104850002001211022002306240025002600270025
:10486000280029002A002B002C002D002E002F00EC
:10487000300031003200330034003500360037009C
:10488000380039003A003B003C003D633E6F3FFB7F
:10489000400141034260438A44004500460047000E
:1048A000480049004A004B004C014D104E0C4F058A
:1048B0005000516252F0538A540055005600570080
:1048C000580059005A005B005C005D835E6C5F021B
:1048D00060016110620063056400650066006700A6
:1048E000680069006A006B006C006D006E006F006C
:1048F000700071007200730074007500760077001C
:10490000780079637A777BFB7C007D727EF07F8A0A
:10491000009C080009000A000B000C000D000E00AE
:104920000F00100011401204137E1400156216A42B
:10493000177E180119B21AA81B7F1C001D721EAC2D
:104940001F80200121B2229C23822400257226A0F0
:104950002783280029002A002B002C002D002E0080
:104960002F003000314032003381340035403600B2
:104970003784380039623AB83B843C013DB23EBCD2
:104980003F854000417242C04386440145B246B073
:104990004788480049724AB44B894C004D004E008C
:1049A0004F00500051005200530054005540560033
:1049B0005787580059625A5F5BFB5C005D005E00E0
:1049C0005F00600061906210630064006500660033
:1049D0006700680069006A006B006C006D836E7888
:1049E0006F02700071007200730074007563765C72
:1049F0007762780079737A787B877C007D637E5C50
:104A00007F68009D080009730A780B870C000D4031
:104A10000E080F6B10001100120013001400154057
:104A200016081771180019621A7C1B6B1C011DB245
:104A30001E801F6C200021722284236D240125B268
:104A40002674276F280029722A782B702C002D627B
:104A50002E7C2F71300131B23280337234003541F7
:104A60003680376E380039723A843B733C013DB270
:104A70003E743F754000417242784376440045627F
:104A800046EC476E480049734A804B6F4C004D41DD
:104A90004E804F7450005173527C538F54005562B6
:104AA00056EC5774580059735A805B755C005D4032
:104AB0005E045F8E60006173627C639164006500D8
:104AC00066006700680069626AF06B8E6C006D407A
:104AD0006E046F907000716272F073907400754094
:104AE0007608775B780079007A007B007C007D4057
:104AF0007E087F5C009E080009630A440B5B0C0083
:104B00000D730E480F21100011631244135C140042
:104B1000157316481743180019401A001B921C0001
:104B20001D001E001F0020002140220023932400AE
:104B3000256226EC2792280029622ACC2B962C018C
:104B40002DB22EC82F9530003140320433943400FA
:104B5000357236C43794380139B23AD03B983C00AC
:104B60003D723ED43F994000416242E04399440186
:104B700045B246DC4798480149324AD84B974C0128
:104B80004DB24EE44F9B5000517252E8539C54007A
:104B9000550056005700580059005A005B005C0051
:104BA0005D405E005F9A6000616262EC6393640046
:104BB000656266CC679F680169B26AC86B9E6C00CB
:104BC0006D406E046F9D7000717272C4739D7401AC
:104BD00075B276D077A1780079727AD47BA27C0006
:104BE0007D627EE07FA2009F080109B20ADC0BA172
:104BF0000C010D320ED80FA0100111B212E413A453
:104C00001400157216E817A5180019001A001B00E9
:104C10001C001D001E001F0020002140220023A3B5
:104C20002400256226EC2743280029622A1C2BA891
:104C30002C012DB22E182FA730003140320433A69C
:104C400034003572361437A6380139B23A203BAAFF
:104C50003C003D723E243FAB40004162423043ABDA
:104C6000440145B2462C47AA480149324A284BA97B
:104C70004C014DB24E344FAD50005172523853AECC
:104C80005400550056005700580059005A005B0068
:104C90005C005D405E005FAC60006162624463B2D4
:104CA00064006570661067B2680069C26A446B4947
:104CB0006C006D906E106F3F700071E272EC73B615
:104CC00074007562764477B4780079707A107BB49A
:104CD0007C007D407E047FB100A0080009C20A4428
:104CE0000B4F0C000D900E100F3F100011E212EC54
:104CF00013B614011503168417B1180019621A3F70
:104D00001BFB1C001D401E041FB320012110220CA0
:104D10002302240125B226EC27B1280129102A00FC
:104D20002B022C012DB22EEC2FB3300031003200BB
:104D300033003400350036003700380039403A007F
:104D40003BB53C003D623EEC3FB5400041004200B7
:104D500043004400450046004700480149104A18F6
:104D60004B024C004D924E404F05500151105200E5
:104D7000530254005563564C57B5580059005A0019
:104D80005B005C005D605E105F5860006140620423
:104D900063B76400658366886703680069736A881F
:104DA0006B586C006D636E886F9A70007190721012
:104DB000733F740075E276EC77B6780079637A8891
:104DC0007BAC7C007D707E107FAC00A108000940A8
:104DD0000A040BAF0C000D630E880FA31000119096
:104DE0001210133F140015E216EC17B61800190044
:104DF0001A001B001C001D001E001F002000214087
:104E0000220423B02400256226F027AF280029625F
:104E10002AFC2BBA2C012DB22EF82FB930013132D9
:104E200032F433B8340135B3360037BC3800397347
:104E30003A043BBD3C003D623EF03FB04000416261
:104E400042FC43C044004540460047BB480149324C
:104E50004AF44BBE4C014DB24EF84FBF500151B316
:104E6000520053C254005573560457C3580059009A
:104E70005A005B005C005D005E005F006000614006
:104E8000620063C16400656266F067AF68006963D1
:104E90006A106BC66C016DB36E0C6FC57001713317
:104EA000720873C4740175B3761477C87800797387
:104EB0007A187BC97C007D627EF07FB000A208007A
:104EC00009630A100BCC0C000D400E000FC7100137
:104ED0001133120813CA140115B3160C17CB18019D
:104EE00019B31A141BCE1C001D731E181FCF2000EF
:104EF000210022002300240025002600270028008E
:104F000029402A002BCD2C002D622EEC2FAF300033
:104F10003163322433D2340135B3362037D13800EF
:104F200039403A043BD03C003D733E1C3FD0400129
:104F300041B3422843D444004573462C47D548002A
:104F400049634A384BD54C014DB34E344FD45001D0
:104F50005133523053D3540155B3563C57D75800B0
:104F600059735A405BD85C005D005E005F006000D2
:104F700061006200630064006540660067D66800F7
:104F800069626AEC6BB06C006D636E246FDB70015C
:104F900071B3722073DA74007540760477D97800A3
:104FA00079737A1C7BD97C017DB37E287FDD00A3D9
:104FB000080009730A2C0BDE0C000D630E380FDE9F
:104FC000100111B3123413DD14011533163017DC40
:104FD000180119B31A3C1BE01C001D731E401FE191
:104FE00020002100220023002400250026002700A5
:104FF000280029402A002BDF2C002D632E932FFB45
:1050000030003163328F33FB3400353036EC3702F9
:10501000380039303AF03B023C013D143E823F44B7
:1050200040004160428043BB44004560468047C128
:10503000480049604A804BD64C004D404E044FE832
:1050400050005140520453EA54005540560457EC66
:10505000580059605A805BDF5C005D605E805FC70E
:1050600060006160628063CD64006540660467EE45
:10507000680069406A046BF06C006D406E046FF26A
:1050800070007163729373FB74007563768F77FBA6
:10509000780079307AEC7B027C007D307EF07F02F4
:1050A00000A4080109140A820B4B0C000D630E9337
:1050B0000FFB10001163128F13FB1400153016EC58
:1050C0001702180019301AF01B021C011D141E8251
:1050D0001F5220002163229323FB24002563268F87
:1050E00027FB280029302AEC2B022C002D302EF033
:1050F0002F02300131143282335734003563369336
:1051000037FB380039633A8F3BFB3C003D303EECC7
:105110003F024000413042F04302440145144682C0
:105120004769480049634A934BFB4C004D634E8FDF
:105130004FFB5000513052EC53025400553056F0A2
:105140005702580159145A825B745C005D635E9388
:105150005FFB60006163628F63FB6400653066EC37
:105160006702680069306AF06B026C016D146E8230
:105170006F9070007160728073E974007560768062
:1051800077EB780079607A807BED7C007D407E044F
:105190007FE200A5080009400A040BE30C000D4063
:1051A0000E040FE410001160128013EF140015605C
:1051B000168017F1180019601A801BF31C001D409F
:1051C0001E041FE520002140220423E62400254080
:1051D000260427E7280029602A002BE22C002D70E6
:1051E0002E042FE430003170320833E6340035608D
:1051F000360037E3380039703A043BE53C003D4067
:105200003E013F1640004170420843E7440045001C
:1052100046004700480049004A004B004C004D4002
:105220004E014F175000516352FD53165400556301
:1052300056FD5717580059005A005B005C005D404E
:105240005E055F1860006140620563196400656275
:1052500066ED6718680069626AED6B196C006D2174
:105260006EF06FE570007140720573237400754035
:105270007605776F780179147A837BCC7C007D2169
:105280007EF07FE600A6080109140A830BCC0C000F
:105290000D6F0EED0F1A1000116F12ED131B14009D
:1052A000159316F01700180019931AF01B001C0034
:1052B0001D931EEC1F0F2000219322EC230F2400CE
:1052C000253026002701280029302A002B012C0038
:1052D0002D6F2EED2F1C3000316F32ED331D340059
:1052E000359336F03700380039933AF03B003C00F4
:1052F0003D933EEC3F0F4000419342EC430F44008E
:10530000453046004701480049304A004B014C00F7
:105310004D6F4EED4F1E5000516F52ED531F540014
:10532000559356F05700580059935AF05B005C00B3
:105330005D935EEC5F0F6000619362EC630F64004D
:10534000653066006701680069306A006B016C00B7
:105350006D6F6EED6F207000716F72ED73217400D0
:10536000759376F07700780079937AF07B007C0073
:105370007D937EEC7F0F00A7080009930AEC0B0FCA
:105380000C000D300E000F0110001130120013013F
:105390001400156F16F117661800196F1AF11B67C4
:1053A0001C001D931EF01F002000219322F02300FB
:1053B0002400259326EC270F280029932AEC2B0F95
:1053C0002C002D302E042F013000313032043301F7
:1053D0003400356F36F137683800396F3AF13B6980
:1053E0003C003D933EF03F004000419342F04300BB
:1053F0004400459346EC470F480049934AEC4B0F55
:105400004C004D304E044F015000513052045301B6
:105410005400556F56F1576A5800596F5AF15B6B3B
:105420005C005D935EF05F006000619362F063007A
:105430006400659366EC670F680069936AEC6B0F14
:105440006C006D306E046F01700071307204730176
:105450007400756F76F1776C7800796F7AF17B6DF7
:105460007C007D937EF07F0000A8080009930AF07D
:105470000B000C000D930EEC0F0F1000119312ECAB
:10548000130F1400153016041701180019301A04F0
:105490001B011C001D621EF11F182000216222F159
:1054A00023192400253026482702280029302A4CB9
:1054B0002B022C012D102E032FFF3000313E3246DF
:1054C000334734003587364F374E380039BF3A8D71
:1054D0003B083C003D3E3EF93F03400041FF42A2F5
:1054E000436044004551468D470E480149054AE551
:1054F0004BD24C014DCD4E274FE15001513C524C07
:1055000053E154005584568A57AB580059775A7D59
:105510005BEA5C005D3A5E6D5F9C600161D562D9BB
:1055200063966400655F663D67D46800698E6A288B
:105530006B8B6C016DB46E0E6F56700171F6728BD1
:1055400073A47400756276E477B2780079687A1A89
:105550007B817C017DDB7E687FA300A9080009AC0C
:105560000A270B8E0C010D880E250F70002C0100F0
:1055700001040000031104010501060007000820D2
:1055800009000A000B010C7C0D000E000F0010003A
:105590001100120013101400150016001700180057
:1055A00019001A801B001C001D001E001F04200093
:1055B0002100220023012400250026F327042802CD
:1055C00029002A002B1F2C002D002E002F00300058
:1055D0003100320033003400350036003700380027
:1055E00039003A003B003C013D443E443F2240022A
:1055F0004107421443054400450046004700485512
:1056000049004A004B004C004D004E004F00500036
:10561000510052005300540055075600570058815E
:1056200059005A005B365C005D405E005F0060011F
:1056300061106200630064006501660F670368071C
:1056400069106AD06B106C006D006E046F01700100
:105650007182720373007404750076887701780094
:1056600079007A007B007C007D007E007F000001D5
:1056700001000200030004030500060007000810F3
:1056800009010A330B110C110D110E000F0110004E
:105690001100120013001400150016001700180066
:1056A00019001A001B001C001D001E001F00200016
:1056B00021002200230024002500260027002800C6
:1056C00029002A002B002C002D002E002F00300076
:1056D0003100320033003400350036003700380026
:1056E00039003A003B003C003D003E003F004000D6
:1056F0004100420043004400450046004700480086
:1057000049004A004B004C004D004E004F00500035
:1057100051005200530054005500560057005800E5
:1057200059005A005B005C005D005E005F00600095
:105730006100620063006400650066006700680045
:1057400069006A006B006C006D006E006F007000F5
:1057500071007200730074007500760077007800A5
:1057600079007A007B007C007D007E007F000000D5
:1057700002000300070008205507000003002A115B
:1057800002003D303E300000021000010304000022
:105790000311002C08FF09FF0AFF0B000C800D000D
:1057A0000E000F001000110012001300147F157C72
:1057B00016C31700188119051AC61B001C3F1DBE11
:1057C0001E781F0020C0214122882300243F25BECF
:1057D00026782700287F29752A182B002C812D1563
:1057E0002E2E2F00303F31BA32A0330034C035782E
:1057F00036723700383F39543A7C3B003C7E3DB826
:105800003E723F004082418842A043004400450070
:1058100046CF4700480049004ACF4B004C004D009E
:105820004ECF4F00507E512A525B53005483559106
:1058300056755700580059035A3B5B005C005D03E6
:105840005E3B5F0060006103623B6300643E65375E
:10585000662E6700680069006A006B006C006DE4EA
:105860006E696F007000717272347300740075009D
:1058700076007700780179BB7A7D7B007C017DBB67
:105880007E7D7F00002D080109BB0A7D0B000C62A4
:105890000D370EC50F0010B411A21282130014634D
:1058A00015F316411700189C190C1ABF1B001C6336
:1058B0001DF31E411F002062213722C5230024B49E
:1058C00025A226822700287F29FF2AFF2B002C8073
:1058D0002D002E012F003040310032003300347F84
:1058E00035FF36FF3700380039003A003B003C00F6
:1058F0003D043E093F00400041044209430044008A
:10590000450446094700487F49424AA84B004C815C
:105910004D6A4E8D4F005000510352FA530054000F
:10592000550356FA5700580059035AFA5B005C7D3C
:105930005D6E5E595F006085611362666300647F1F
:1059400065FF66FF6700688069526A656B006C7F5F
:105950006D5B6EE66F00707F71DE72F073007480B5
:105960007541766E7700787F797F7AB27B007C8094
:105970007D807E4E7F00002E087F097F0AB20B00DB
:105980000C7F0D7F0E920F0010811100125B13002F
:10599000147F15D5160817001880192A1AF81B004D
:1059A0001C7F1DD51E081F00207F21D422E8230064
:1059B0002480255526AE2700280029C02A002B0068
:1059C0002CFD2DB92E4B2F003016310232513300F1
:1059D0003400350636D33700380239343A183B00E4
:1059E0003C023D343E183F0040024134421843001F
:1059F000447045F846F547004895493D4AB54B0087
:105A00004C014DE34ECF4F00500151E352CF5300B4
:105A1000540155E356CF5700586059E45AB95B001A
:105A20005CB65DA75E515F00607E61D5620B63006E
:105A30006481652A66F56700687E69D56A0B6B002C
:105A40006C7E6DCE6E4F6F00708271487272730003
:105A5000747C75F976857700788379067A7B7B008C
:105A60007C7C7DF97E857F00002F087C09F20AE3AB
:105A70000B000C850DFF0EB00F00106B11E612FB32
:105A80001300149D15EE16C01700185919501A1856
:105A90001B001C621D111E401F0020BA21C822EBF2
:105AA0002300240A25C026002700287F292A2AEC63
:105AB0002B002CC02D6A2E8A2F00300031003200BE
:105AC0003300343F352A36EC3700380039003A00CD
:105AD0003B003C013DA73E6A3F00400041D342B538
